S0120000503153697374656D61732E7372656348
S11300000C9434000C9449000C9449000C9449005D
S11300100C9449000C9449000C9449000C94490038
S11300200C9449000C9449000C9449000C94490028
S11300300C9449000C9449000C9449000C94490018
S11300400C9449000C9449000C9449000C94490008
S11300500C9449000C9449000C9449000C944900F8
S11300600C9449000C94490011241FBECFEFD8E032
S1130070DEBFCDBF11E0A0E0B1E0E6EBF2E002C0EC
S113008005900D92A233B107D9F70E94F1000C94A8
S113009059010C9400009093C5008093C40088E03B
S11300A08093C10086E08093C20008959091C000BF
S11300B095FFFCCF8093C6000895CF93DF93EC01A6
S11300C003C021960E94560088818111FACFDF91E6
S11300D0CF91089581111FC080E3FB0180831182B9
S11300E008953DEC839F312D1124932F9695969579
S11300F09695990F492F440F440F940F891B982FFD
S1130100FB01E20FF11D905D9083832F8695869508
S113011086952F5F01C020E08111E3CFFB01E20F40
S1130120F11D108211C0482F50E0DB01A40FB51F50
S11301309C91E22FF0E0E41BF50B3197E60FF71FDB
S113014030813C9390838F5F922F9695891758F353
S113015008958BB18B7F8BB983E08A95F1F700000A
S11301608BB180618BB993E09A95F1F700008BB164
S11301708F7E8BB983E08A95F1F700008BB18061A3
S11301808BB993E09A95F1F700008BB18F7E8BB910
S113019083E08A95F1F7000027E030E080E01BC09F
S11301A09BB190619BB993E09A95F1F700004B9B4A
S11301B009C041E050E0022E02C0440F551F0A94CA
S11301C0E2F7842B9BB19F7E9BB993E09A95F1F75C
S11301D000002150310933231CF79BB194609BB973
S11301E00895CF93DF93CDB7DEB72A970FB6F8946F
S11301F0DEBF0FBECDBF8AB184618AB98AB1877F61
S11302008AB98BB188608BB98BB184608BB98BB19F
S11302108F7E8BB98FEF84B915B889E190E00E9485
S11302204B0087EA91E60197F1F700C0000080E0F7
S113023091E00E945D000E94A900F82E85B98CE12E
S113024091E00E945D00BE016F5F7F4F8F2D0E9481
S11302506A00CE0101960E945D0084E291E00E9452
S11302605D0007E010E015C08F2D90E0002E02C065
S1130270959587950A94E2F780FF05C08EE291E098
S11302800E945D0004C080E391E00E945D00015083
S1130290110911234CF789E191E00E945D009FE967
S11302A026E881E0915020408040E1F700C0000042
S10902B0C2CFF894FFCF59
S11302B6496E696369616E646F206C6563747572F7
S11302C6612064656C204144430D0A0056616C6FDD
S11302D6723A2000207C204C4544733A20003100B9
S10502E63000E2
S9030000FC
