:100000000C9434000C9449000C9449000C94490061
:100010000C9449000C9449000C9449000C9449003C
:100020000C9449000C9449000C9449000C9449002C
:100030000C9449000C9449000C9449000C9449001C
:100040000C9449000C9449000C9449000C9449000C
:100050000C9449000C9449000C9449000C944900FC
:100060000C9449000C94490011241FBECFEFD8E036
:10007000DEBFCDBF11E0A0E0B1E0ECE1F1E002C0F5
:1000800005900D92AE30B107D9F70E946A000C942A
:100090008C000C9400009093C5008093C40088E00D
:1000A0008093C10086E08093C20008959091C000C3
:1000B00095FFFCCF8093C6000895CF93DF93EC01AA
:1000C00003C021960E94560088818111FACFDF91EA
:1000D000CF9108958FEF84B985E585B989E190E0E6
:1000E0000E944B002FE38DE093E021508040904030
:1000F000E1F700C0000080E091E00E945D0085B162
:10010000809585B92FE38DE093E0215080409040A9
:0C011000E1F700C00000EFCFF894FFCF33
:0E011C00486F6C61206D756E646F0D0A0000F7
:00000001FF
