S0120000503153697374656D61732E7372656348
S11300000C9434000C9449000C9449000C9449005D
S11300100C9449000C9449000C9449000C94490038
S11300200C9449000C9449000C9449000C94490028
S11300300C9449000C9449000C9449000C94490018
S11300400C9449000C9449000C9449000C94490008
S11300500C9449000C9449000C9449000C944900F8
S11300600C9449000C94490011241FBECFEFD8E032
S1130070DEBFCDBF11E0A0E0B1E0EEEEF3E002C0E0
S113008005900D92A234B107D9F70E943C010C945B
S1130090F5010C9400009093C5008093C40088E09F
S11300A08093C10086E08093C20008959091C000BF
S11300B095FFFCCF8093C6000895CF93DF93EC01A6
S11300C003C021960E94560088818111FACFDF91E6
S11300D0CF91089581111FC080E3FB0180831182B9
S11300E008953DEC839F312D1124932F9695969579
S11300F09695990F492F440F440F940F891B982FFD
S1130100FB01E20FF11D905D9083832F8695869508
S113011086952F5F01C020E08111E3CFFB01E20F40
S1130120F11D108211C0482F50E0DB01A40FB51F50
S11301309C91E22FF0E0E41BF50B3197E60FF71FDB
S113014030813C9390838F5F922F9695891758F353
S113015008950F931F93CF93DF938C01EB01FC0160
S1130160F695E795F695E795F695E7959F01A5EC45
S1130170B0E20E94E601AC01529542954F704527CA
S11301805F70452728EE33E0429FC001439F900DE6
S1130190529F900D1124081B190BBE01842F0E943D
S11301A06A0001C0219698819111FCCFBE016F5F56
S11301B07F4F8EE288830A30110530F480E389830F
S11301C06E5F7F4F8A8308C00436110528F4BE0190
S11301D06E5F7F4F80E38983802F0E946A00DF91E6
S11301E0CF911F910F9108958BB18B7F8BB983E0D1
S11301F08A95F1F700008BB180618BB993E09A95F1
S1130200F1F700008BB18F7E8BB983E08A95F1F70B
S113021000008BB180618BB993E09A95F1F70000EF
S11302208BB18F7E8BB983E08A95F1F7000027E0CC
S113023030E080E01BC09BB190619BB993E09A953C
S1130240F1F700004B9B09C041E050E0022E02C0D0
S1130250440F551F0A94E2F7842B9BB19F7E9BB9F0
S113026093E09A95F1F700002150310933231CF7EC
S11302709BB194609BB90895CF93DF93CDB7DEB75C
S11302802A970FB6F894DEBF0FBECDBF8AB1846142
S11302908AB98AB1877F8AB98BB188608BB98BB1EF
S11302A084608BB98BB18F7E8BB98FEF84B915B80D
S11302B089E190E00E944B0087EA91E60197F1F70B
S11302C000C0000080E091E00E945D000E94F40004
S11302D0F82E282F30E0A8E8B3E10E94E6012FEFC2
S11302E030E040E050E00E94C40149015A01F5B8F1
S11302F08CE191E00E945D00BE016F5F7F4F8F2D06
S11303000E946A00CE0101960E945D0084E291E0A1
S11303100E945D00BE016F5F7F4FC4010E94A9006F
S1130320CE0101960E945D0081E391E00E945D0090
S113033084E391E00E945D0007E010E015C08F2D7A
S113034090E0002E02C0959587950A94E2F780FF0D
S113035005C08EE391E00E945D0004C080E491E05A
S11303600E945D000150110911234CF789E191E0CD
S11303700E945D009FE926E881E091502040804082
S1130380E1F700C00000A2CFA1E21A2EAA1BBB1BFA
S1130390FD010DC0AA1FBB1FEE1FFF1FA217B3074D
S11303A0E407F50720F0A21BB30BE40BF50B661F63
S11303B0771F881F991F1A9469F760957095809527
S11303C090959B01AC01BD01CF010895A29FB0019E
S11303D0B39FC001A39F700D811D1124911DB29F75
S11103E0700D811D1124911D0895F894FFCF16
S11303EE496E696369616E646F206C6563747572BE
S11303FE612064656C204144430D0A0056616C6FA4
S113040E723A2000207C20566F6C74616A653A2023
S113041E00205600207C204C4544733A20003100C5
S105042E300098
S9030000FC
