:100000000C9434000C943E000C943E000C943E0082
:100010000C943E000C943E000C943E000C943E0068
:100020000C943E000C943E000C943E000C943E0058
:100030000C943E000C943E000C943E000C943E0048
:100040000C943E000C943E000C943E000C943E0038
:100050000C943E000C943E000C943E000C943E0028
:100060000C943E000C943E0011241FBECFEFD8E04C
:10007000DEBFCDBF0E948A000C94B3000C94000038
:100080008BB18B7F8BB985E38A95F1F700008BB13B
:1000900080618BB995E39A95F1F700008BB18F7E63
:1000A0008BB985E38A95F1F700008BB180618BB93C
:1000B00095E39A95F1F700008BB18F7E8BB985E3BC
:1000C0008A95F1F7000027E030E080E01BC09BB18B
:1000D00090619BB995E39A95F1F700004B9B09C09D
:1000E00041E050E0022E02C0440F551F0A94E2F78F
:1000F000842B9BB19F7E9BB995E39A95F1F7000005
:100100002150310933231CF79BB194609BB90895AA
:1001100085B908958AB184618AB98AB1877F8AB91D
:100120008BB188608BB98BB184608BB98BB18F7EBA
:100130008BB98FEF84B915B82FEF81EE94E0215081
:1001400080409040E1F700C000000E9440000E9403
:1001500088002FEF80E792E0215080409040E1F747
:0A01600000C00000F2CFF894FFCFBA
:00000001FF
