:100000000C9434000C9451000C9451000C94510049
:100010000C9451000C9451000C9451000C9451001C
:100020000C9451000C9451000C9451000C9451000C
:100030000C9451000C9451000C9451000C945100FC
:100040000C9451000C9451000C9451000C945100EC
:100050000C9451000C9451000C9451000C945100DC
:100060000C9451000C94510011241FBECFEFD8E026
:10007000DEBFCDBF11E0A0E0B1E0EEE4F2E002C0EF
:1000800005900D92A030B107D9F721E0A0E0B1E0D2
:1000900001C01D92A130B207E1F70E94AB000C94A1
:1000A00025010C94000087B1816087B987B1826017
:1000B00087B987B18B7F87B988B1816088B988B1EA
:1000C0008D7F88B98FEF84B915B885B92FEF83ED8F
:1000D00090E3215080409040E1F700C0000015B847
:1000E000089588B18E7F88B985E38A95F1F700007D
:1000F00080E020E012C098B1926098B995E39A959B
:10010000F1F70000880F3299816098B19D7F98B90E
:1001100095E39A95F1F700002F5F283060F398B1CE
:10012000916098B995E39A95F1F70000089581E000
:100130008093C5008FE98093C40088E18093C1005B
:1001400086E08093C20008959091C00095FFFCCF97
:100150008093C60008950E9453000E9497002FEFDD
:1001600087EA91E6215080409040E1F700C000000E
:10017000C1E010E084E50E94A40085E40E94A40090
:1001800083E50E94A40084E50E94A4008AE30E9403
:10019000A4008DEC189F812D112486958695869557
:1001A000880F982F990F990F890F212F281B822FC5
:1001B000805D0E94A4008DE00E94A4008AE00E945D
:1001C000A400C5B98C2F90E0880F991FCC1FCC27B5
:1001D000CC1FC82B0E9471008093000181E40E9413
:1001E000A40084E40E94A40083E40E94A4008AE3A3
:1001F0000E94A400D09100018D2F82958F70DF7036
:100200008A3020F4805D0E94A40003C0895C0E94B3
:10021000A400DA3028F480E38D0F0E94A40004C00B
:1002200087E38D0F0E94A4008DE00E94A4008AE065
:100230000E94A4001F5F8FEF93ED20E38150904058
:0E0240002040E1F700C0000095CFF894FFCFFA
:00000001FF
